:100000009771002093818111970200009382420131
:080010007390523011A00000B2
:0400180015250000AA
:10001C005D7116C21AC41EC672C876CA7ACC7ECE60
:10002C002AD02ED232D436D63AD83EDA42DC46DE4C
:10003C0006C0A2C417240020130404F9F3221034C0
:10004C0096C0F32300309EC2F322203493D2F201E7
:10005C00639D0204F3222034B7030080FD13B3F236
:10006C0072002D43638962000A859700000093801B
:10007C00200B6F50104D8642910296C092426384C1
:10008C0002000D4511A002558A85397122C426C67D
:10009C004AC84ECA52CC56CE5AD05ED262D466D61C
:1000AC006AD86EDA0A866F5030300323040093034B
:1000BC00130023207400631703008A820321440079
:1000CC00411116C073252034B7020080FD12337520
:1000DC005500EF00200897E20000938222C30E0522
:1000EC00AA9203A5020003A34200E70003008323A6
:1000FC000400FD13232074006392030202410C449C
:10010C0041112EC013050000EFC01079824541014A
:10011C0011C5A92317240020130404EB864296432F
:10012C007390123473900330264492422243B243AC
:10013C00424ED24E624FF24F025592552256B25653
:10014C004257D2576258F258824061617300203096
:10015C00000000000543B312A30073B34234828045
:02016C00000091
:02016E00FFFF91
:10017000B7070100637AF5029337051093C717009C
:100180009397370037E7000093060002B386F640E6
:100190003355F5009307476BB387A70003C50700E6
:1001A0003385A640678000003707000193070001F0
:1001B000E36AE5FC930780016FF0DFFCB307A04022
:1001C00033F5A700B70701006378F50293370510F0
:1001D00093C717009397370037E700003355F500B2
:1001E0001307476B3307A700034507009387F7FF03
:1001F0003305F50067800000370700019307000111
:10020000E36CE5FC930780016FF01FFD9308050088
:1002100013830500130706001308050093870500E4
:1002200063920628B7E500009385456B6376C30E9D
:10023000B70601006378D60C9336061093C61600F5
:10024000939636003355D600B385A50083C50500C7
:1002500013050002B386D500B305D540630CD50065
:10026000B317B300B3D6D8003317B600B3E7F60020
:100270003398B8009355070133D3B702131607011B
:1002800013560601B3F7B70213050300B30866025D
:100290009396070193570801B3E7D70063FE170150
:1002A000B307F7001305F3FF63E8E70063F61701F0
:1002B0001305E3FFB387E700B3871741B3D8B7024D
:1002C0001318080113580801B3F7B702B306160351
:1002D000939707013368F80093870800637CD80080
:1002E000330807019387F8FF6366E8006374D8005A
:1002F0009387E8FF131505013365F50093050000AA
:10030000678000003705000193060001E36CA6F248
:10031000930680016FF01FF393060000630C060044
:10032000B70701006370F60C9336061093C61600EB
:1003300093963600B357D600B385F50083C7050002
:10034000B387D70093060002B385F6406396F60A9A
:10035000B307C340930510009358070133DE17031A
:10036000131607011356060193560801B3F7170336
:1003700013050E003303C60393970701B3E7F60096
:1003800063FE6700B307F7001305FEFF63E8E700AD
:1003900063F667001305EEFFB387E700B387674096
:1003A00033D317031318080113580801B3F71703C1
:1003B000B3066602939707013368F80093070300BA
:1003C000637CD800330807019307F3FF6366E800F6
:1003D0006374D8009307E3FF131505013365F50037
:1003E00067800000B707000193060001E364F6F49C
:1003F000930680016FF01FF43317B600B356F30075
:10040000135507013313B300B3D7F800B3E7670000
:1004100033D3A60213160701135606013398B8000A
:10042000B3F6A602B30866029395060193D60701B8
:10043000B3E6B6009305030063FE1601B306D700CA
:100440009305F3FF63E8E60063F616019305E3FF07
:10045000B386E600B3861641B3D8A6029397070188
:1004600093D70701B3F6A602330616039396060147
:10047000B3E7D7009386080063FEC700B307F70011
:100480009386F8FF63E8E70063F6C7009386E8FF0A
:10049000B387E70093950501B387C740B3E5D5005F
:1004A0006FF09FEB63E6D518B707010063F4F6041D
:1004B00013B706101347170013173700B7E70000EC
:1004C000B3D5E6009387476BB387B70083C70700B0
:1004D000B387E70013070002B305F7406316F7027E
:1004E00013051000E3EE66E033B5C80013451500B0
:1004F00067800000B707000113070001E3E0F6FC86
:10050000130780016FF09FFB3357F600B396B600D8
:10051000B366D7003357F3003313B300B3D7F800F3
:10052000B3E7670013D30601B35E670213980601B1
:10053000135808013316B60033776702330ED80319
:100540001315070113D707013367A70013850E00A2
:10055000637EC7013387E6001385FEFF6368D7001B
:100560006376C7011385EEFF3307D7003307C74112
:10057000335E67029397070193D7070133776702CA
:100580003308C80313170701B3E7E70013070E008A
:1005900063FE0701B387F6001307FEFF63E8D70089
:1005A00063F607011307EEFFB387D70013150501A4
:1005B000370E01003365E5009306FEFF3377D50063
:1005C000B3870741B376D6001358050113560601C9
:1005D0003303D702B306D8023307C7023308C80271
:1005E0003306D700135703013307C7006374D700DE
:1005F0003308C80193560701B386060163E6D702A4
:10060000E39ED7CEB70701009387F7FF3377F70054
:10061000131707013373F300B398B800330767006B
:1006200093050000E3FEE8CC1305F5FF6FF01FCD46
:10063000930500001305000067800000732540F15A
:1006400081426303550019A817310020130181FA74
:100650008562938202801691EF50807C09A073001E
:100660005010F5BF0000000023AA150280DDC4DD94
:1006700023A0250523A2350523A4450523A655055A
:1006800023A8650523AA750523AC850523AE95052A
:1006900023A0A50723A2B50723A8250223A2B508F6
:1006A000032105030322C50883204503005D445D43
:1006B0000329050483294504032A8504832AC504E4
:1006C000032B0505832B4505032C8505832CC505C8
:1006D000032D0506832D45068280000013070000C8
:1006E0006316E6001305000067800000B307E5000D
:1006F00013071700B386E50083C7070083C6F6FF1C
:10070000E380D7FE3385D74067800000B305B5008E
:10071000930705006386B70003C707006316070049
:100720003385A74067800000938717006FF09FFE16
:10073000130101FA232C8102232A91022328210389
:1007400093040500138405001309060093050000B7
:100750001306000213050101232AF104232E1102BE
:100760002326D1042328E104232C0105232E11057F
:10077000EFD0204193072000230AF100B7170000B3
:1007800093874705232CF100232291029307000051
:10079000630C04003707008093070400637487002C
:1007A000B70700809387F7FFB384F4001306C104F2
:1007B0009305090013050101232491022326C1009A
:1007C000EF0080186306040083274102238007009E
:1007D0008320C103032481038324410303290103EC
:1007E000130101066780000093087003B388D840A6
:1007F0009307050093F8F80F1305060093F6F6012A
:1008000013038000130E000113069000930E500096
:1008100013F7F70F6382660E6386C611139FF50107
:1008200013D81700939FE50193D7270033680F0172
:10083000B3E7FF00B307F80013DF150093D52500D9
:10084000B305BF0033B807013308B800131FC80150
:1008500093D54700B365BF00B385B700135F480069
:100860003308E801B3B7F500B3870701139F870189
:1008700013D8850033680F013388050113DF870023
:10088000B387E701B335B800B385F5009397050149
:10089000135F080133EFE701330FE80193D7050138
:1008A000B385F50033380F013308B800B3070F01E3
:1008B000B3B5E701B38505011398D50193D7370088
:1008C000B367F8003388D70393D5350013181800A1
:1008D000330707411377F70F637AE602138817008F
:1008E000333FF800130767FF93070800B305BF0005
:1008F0001377F70F6F0040041398D50193D7370093
:1009000013777700B367F80093D535001307070313
:100910002300E50033E7B70013051500E31A07EEDF
:10092000678000001398C50193D747001377F7003D
:10093000B367F80093D54500E37AE6FC3387E80017
:100940001377F70F6FF09FFC130101F9232A51056C
:100950002326110623248106232291062320210722
:10096000232E3105232C41052328610523267105FB
:1009700023248105232291052320A105232EB103E1
:1009800083474500832A850093F727006384072E59
:1009900093090500930406001309000083CC0500A9
:1009A000638C0C2C93075002938B1500639AFC0008
:1009B00083CC150093075002938B25006390FC02B3
:1009C000130919009385090013850C00E7800A00BC
:1009D000634C052893850B006FF05FFC370701001F
:1009E000130D0000130A0000130400001306F001A9
:1009F0009306C006930540071305A0071308800659
:100A00009308A0061303C004130EA002930EE00285
:100A1000130FF007930F00019302900013078779DB
:100A2000636C860693870CFE63EAFF0093972700AA
:100A3000B387E70083A707006780070093870CFD53
:100A400063F0F208639ECC099373040483A7040047
:100A5000938444006398031463CE0706136404026E
:100A6000138A07006F0080001364140083CC0B000E
:100A7000938B1B00E3960CFA6F00000913642400AB
:100A8000136444006FF09FFE136484006FF01FFE38
:100A9000136404016FF09FFD636E8F0493870CFD58
:100AA00093039000E3E0F3FA93730404638A030072
:100AB0009303A000B3037D02338DF3006FF01FFB9F
:100AC0009303A000B3037A0213640402338AF30091
:100AD0006FF0DFF9330AF040136484026FF01FF9FE
:100AE000639ADC0193770404639807181364040481
:100AF0006FF0DFF76380DC0863E8960763860C0914
:100B0000638E1C09638C6C08635A0D001374F4FB2C
:100B10001314040113540401130D000093E60C0296
:100B20001387B6F99307200063F6E70093071006D2
:100B3000639EF6069384740093F484FF370B0100E0
:100B400093848400930C7000130B0B79137484004E
:100B5000630C040E13040000639C8C0E3306990191
:100B6000330A9A416F008042E382BCF0E380ACF02C
:100B70006FF09FF9937704086384070013640420DF
:100B8000136404086FF09FEE9377041063840700EA
:100B900013640420136404106FF05FED13640428E1
:100BA0006FF0DFEC138D07006FF05FEC9387DCF9DB
:100BB000130720016362F72C370701009397270082
:100BC0001307C77DB387E70083A707006780070087
:100BD00083A70400930C100093844400230CF100BD
:100BE000130B81016FF09FF603AB0400938D44005B
:100BF00063160B00370B0100130B8B7893770404FB
:100C00009305F0FF6384070093050D0013050B00A7
:100C1000EFF0DFAF930C050093840D006FF01FF32E
:100C20009385090013050002E7800A00634E050260
:100C30001304F4FFE3E68CFE3309490133098940CC
:100C4000130A04006FF01FF113040A006FF09FFEF7
:100C5000B3078B0003C50700938509001304140034
:100C6000E7800A00E35A05EE83C7490093E747008F
:100C70002382F9001309F0FF8320C10603248106B3
:100C8000832441068329C105032A8105832A41055E
:100C9000032B0105832BC104032C8104832C410405
:100CA000032D0104832DC103130509000329010647
:100CB0001301010767800000937704086382070C23
:100CC000937704206386070A9384740093F484FF67
:100CD00003A5040083A54400138B84009374F4FEE1
:100CE0009394040193D4040163D4050CB337A0009A
:100CF000B305B040B385F5403305A04093E404400C
:100D0000130C81019306A00013060C00EFF0DFAD79
:100D100093F70404330C8541638C071293F7E4FFC7
:100D20009397070193D707016356AC1F638A0C1C86
:100D300093FD040113040D0093840700638E0D08D6
:100D40001304240093F784006394072093F714009E
:100D5000638C0700130D0C006358440133048A4070
:100D6000330D840113040A00930704006F00401D33
:100D700003A50400138B44009355F5416FF01FF653
:100D80009377041003A50400138B4400E38607FE49
:100D90009377042063880700131585011355854157
:100DA0006FF09FFD13150501135505416FF0DFFC32
:100DB000B367B500E39607F493770404E38207F47E
:100DC000E3100DF49374E4FE9394040193D40401AE
:100DD00013040000130C000093FD6440E3840DF63F
:100DE00013041400930D00006FF0DFF51374F4FE8C
:100DF00013140401135404019306A000937704080C
:100E00006380070C937704206384070A938474003B
:100E100093F484FF03A5040083A54400138B84008E
:100E2000B367B5006394070C937494FE9394040124
:100E30009377040493D404016380070C631E0D0AA6
:100E4000937484FE9394040193D40401130C000062
:100E500093FD040163840D0C13041C00E3840CEE69
:100E600013040C006FF0DFED13640401930600011E
:100E7000930C80076FF09FF8930780076398F60044
:100E8000B386964193E606016FF05FF793850900FC
:100E900013055002E7800A00E34805DC1309290026
:100EA0006FF05FB293068000930C00006FF01FF5A7
:100EB00003A50400138B4400930500006FF05FF658
:100EC0009377041003A50400138B4400E38607FE08
:100ED00093770420638607001375F50F6FF0DFFD2D
:100EE00013150501135505016FF01FFD137494FFD1
:100EF0009314040193D40401130C81016FF0DFE01B
:100F000093F4E4FE9394040193D4040113040D00BC
:100F10006FF09FEC938407006FF09FF313040C00B5
:100F20006FF09FEB93850900130500022326F10063
:100F3000E7800A00E34A05D28327C10093871700A0
:100F4000E3C247FF330489403309F40013840700E8
:100F500063800D069385090013050003E7800A00EE
:100F6000E34405D0639A0C0213091900330D2D01D7
:100F7000B3072D416346FC0693040C00639E0406F0
:100F800033062C01330A8A4093040B001309060030
:100F9000330A46016F00800913092900938509006F
:100FA00013850C00E7800A00E35205FC6FF0DFCBED
:100FB00093F76440E38C07FA93F7240013050002CB
:100FC000638407001305B00293F4044063840400B3
:100FD0001305D00213091900938509006FF09FFCD7
:100FE000938509001305000313091900E7800A001F
:100FF000E35005F86FF05FC79384F4FF9307810116
:10100000B387970003C5070093850900E7800A00AE
:10101000E35605F66FF05FC59385090013050002DE
:1010200013091900E7800A00E34005C4B3072A4109
:10103000E344F0FE6FF01F9A9307050003C7070013
:1010400093871700E31C07FE3385A7401305F5FFC0
:101050006780000083A7450103A785016388E70037
:101060001387170023AAE5002380A70067800000EC
:101070008280411106C622C4EF30D041376400207F
:1010800013050429F12EB7150020130504299385B3
:10109000050B712E0145192105C1B96783C5076B81
:1010A0003D65814601461305458AEF40007B814539
:1010B0007945EFC0C018E5BF396639651305855518
:1010C0001306467B8545EF20B05EB240224435557D
:1010D0004101828093F5052085C1B7150020376551
:1010E00000204111130505299385851006C6812628
:1010F000B240014541018280014582808567938726
:101100000720FD8D85C1B7050020376500204111FE
:10111000130505299385856706C65D24B240014500
:101120004101828001458280411106C637050020B9
:1011300013050568EFA0C019B240AA87FD87130503
:1011400070057D8D41018280397126DA06DE22DC50
:101150004AD84ED652D456D25AD05ECE62CC66CA47
:1011600003290500832A450083298500035BC50008
:10117000AE84832789003000D685DC434A85829778
:1011800063460506A24B324437D69A3BB3B7790380
:10119000130606A0814637DA9A3B130AFA9F330CEE
:1011A0003403338579033E9CE285EFF02F86AA89CC
:1011B000636E8A03B3B7740337D69A3B814613062E
:1011C00006A033049402338574033E94A285EFF0A5
:1011D000EF83AA86636C8A008327890063E8A900ED
:1011E0009C435A874E86D6854A858297F250625430
:1011F000D2544259B259225A925A025BF24B624C73
:10120000D24C216182806FA0B075797126D206D64A
:1012100022D44AD04ECE52CC56CA5AC85EC662C4F8
:1012200066C2AA84294BEFC02058330BAB029389C6
:1012300084FEFD557D564E85EFA0D063938A8404CD
:10124000814B1309F00F130C000383D72AFF89C7C2
:1012500003D70A006372F70E03D70AFF83A64A007A
:10126000BA9663F1660383C68A00B337F00023A2FF
:101270006A0193C616002384DA0083D60A00B69763
:101280002390FA00014819CB03A84A009307803E37
:1012900033080B413308F8023358E80283C58A004B
:1012A00003C69AFE83C6DAFE03CAEAFE03C5FAFE47
:1012B00083C7BAFE03C7AAFEE9C1158E33074741AB
:1012C0003384A74062066207620461866187618495
:1012D0009305803E330606033307070333040403F4
:1012E0003346B6023347B702B29613F6F60F3344CD
:1012F000B4023A9A137AFA0F2A941374F40F83AC57
:101300004406DE9C83A78C0066853306F602B3553F
:1013100026031D3D83A78C0113850C01B305FA023A
:10132000B3D52503153583A78C0213850C02B305AD
:10133000F402B3D52503093DB10A639D8B034E85A5
:10134000D93503D504062946814625058145EFE0B8
:10135000FFEB2254B2500259F249624AD24A424B40
:10136000B24B224C924C2E86AA852685925445611A
:101370006FB0C050930B0003C9BD918E330AEA4091
:101380001D8DE206620A6205E186135A8A41618573
:10139000B38606039305803E330A0A03330505032B
:1013A000334ABA02B3C6B6025297137AF70F3345DF
:1013B000B50236961376F60FAA9713F4F70F81B796
:1013C000411122C426C206C62A84AE84FD557D562C
:1013D000EFA0504AA685130584071146EFC060743C
:1013E00022852244B2409244410131BD4111B147AE
:1013F00026C2B304F60222C42A84314606C61385E7
:1014000084042295EFC0E0711385040631468145BE
:101410002295EFC00077EFC02039A947B387A70214
:1014200026947CD0B24022449244410182804111F2
:1014300022C426C206C62A84AE84FD557D56EFA07E
:101440007043A68522850146553722859385C400C1
:101450000546693F22852244B2409244410165B36A
:10146000411126C285659304850122C49385A52078
:101470002A84268506C6EFB06032035584072946C4
:10148000814625058145EFE07FD82244B2402E8673
:10149000AA852685924441016FB0403E411122C485
:1014A000B765002026C29385C542AA84138581981A
:1014B00006C6EF40F0670DC1AA863D661306469D3D
:1014C0003965854513050555EF20B01F0145B2402C
:1014D0002244924441018280B76500209385854073
:1014E00013858198EF40D064AA8609C53D6613062E
:1014F00046A0F9B7B76500209385853D138581988F
:10150000EF401063AA8609C53D66130686A34DBF4A
:10151000B76500209385453C13858198EF40506165
:10152000AA8609C53D66130686A659BF3766002000
:1015300013060637814513858198EF60603D19C910
:101540003D66130606A93965854513050555EF2047
:101550003016ADBF0546814513858198EF60B00315
:1015600009C53D66130686ABF9BF054789461306D4
:10157000F00E814513858198EF40703D99C8A6858E
:1015800013858198EF60B06B09C53D66130686AD83
:101590005DBF13858198EF40704209C53D66130613
:1015A000C6AF55B713858198EF40D05301C5138559
:1015B000819831BF13858198EF4030496DD93D66E0
:1015C000130606B249B7BD661345F5FF014793867A
:1015D000C6B56315C7001345F5FF8280B387E500E4
:1015E00083C707001358450005073D8D3D890A054F
:1015F0003695084191833348A800B3C70701BD8BD6
:101600008A07B6979C43135548003D8DD9B72E865F
:10161000AA8501454DBFBD6601479386C6B96313D0
:10162000C7008280B387E50083C7070005073D8DAB
:1016300093574500B69783C7070012051375F50F3A
:10164000A98F13D54700369503450500920793F7F8
:10165000F70F3D8DE9B78E052E95035525000581C1
:101660008280411106C622C426C22A84AE84E53790
:10167000EFE01FB0FD473385A740131725002297E1
:10168000032807019397340093854700939604013C
:101690009907A295A297C1826312080205463315E5
:1016A000A6005044498E50C404CB2390D50023900B
:1016B000D700B2402244924441018280131738007F
:1016C00011072297035607002390C5000E062390AA
:1016D000070132942313D4002310D700D9BF939667
:1016E0003500AA9603D7660093074600639FE5007E
:1016F00005473316C70058451346F6FF8A07718F12
:1017000058C53E9523200500828083D646008A076F
:10171000AA9798C393973600AA972393E7000E07DA
:101720003A952312D5008280411106C622C426C2F2
:101730002A84AE840D37EFE0BFA37D46098E228553
:101740002244B240A6859244410151BF797126D20C
:10175000AA842E854AD04ECE52CC5AC806D622D460
:1017600056CA2E8AEFE0DFA07D46098E13192600A7
:101770002699032B0901AA8963050B048D4A0324CA
:101780000901268532C6A285F935324663604503D4
:10179000A2852685A937B250228522549254025937
:1017A000F249624AD24A424B456182800E04269435
:1017B00083576400FD1A2328F90063840A00E310AC
:1017C000FBFC93070002B38737417D543314F400C8
:1017D000DC447D8C69D02285EFE05F9E9307450055
:1017E0008A07A69780432A8665B7011106CE22CCC8
:1017F00026CA4AC84EC63284AA842E89A93DA2852B
:10180000AA892685893DAA990E09269993971900D8
:101810002311F900A28526853D3D2A940E04A29449
:1018200023903401F2406244D2444249B2490561F6
:101830008280011106CE22CC26CA4AC84EC6328406
:101840002A89AE84093D33079440B38984408E04CD
:10185000CA94931717002391F400AA9993173400A0
:10186000CA9793961900A2854A852391D7002390A1
:10187000E700D5332A940E04229923103901F2404F
:101880006244D2444249B24905618280411122C476
:1018900026C22E84AA8406C64AC0753BB305A4009E
:1018A00093973500A69783D72700858B99EB2685DC
:1018B000A53DA285268545333306A400A28526854D
:1018C0002D3713193400269983550900B305B44008
:1018D00093973500A69783D72700858B89EF2685B8
:1018E000A1358355090022862685B305B440F53D10
:1018F000835709001D8CA2852244B24002492685E7
:1019000092444101B9BB91CD0841F115898D93F7FE
:1019100085FFAA9703D727008D81799B2391E70044
:10192000B5B78280411106C622C426C24AC0032927
:10193000050081E90145B240224492440249410137
:1019400082800327890093D73500E3F5E7FEAD05D4
:1019500013D43500A2854A85D53BAA8461DDAA85CA
:101960004A85D539637AA4002694A6854A852286BD
:10197000C935A2854A85F5318E043307990083570E
:10198000270091043305990093E717002311F7000E
:101990005DB7797152CC138AF5FF22D44ECE06D6AC
:1019A00026D24AD0337ABA0003290500AE893284A0
:1019B00063070A02B307B040ED8F91463E8763F399
:1019C000F6001147D2893E8A05E88144B25022547C
:1019D0000259F249624A26859254456182809147B4
:1019E0001147E3E3B7FE2254B25092540259F24930
:1019F000624AB28545613DB783268900935734001A
:101A0000E3F5D7FC9305B400CE95998D8D814A8579
:101A1000353BAA855DD993074A0093143500BE94DF
:101A2000CA949387F9FFBE94B3D43403B3843403C8
:101A3000B384444126949389C4FF1D04B38929418A
:101A400061983304244193D939000D8463793501B9
:101A50002AC64E864A85F13BB2454A851931CE8564
:101A60004A85D53E4E956379A400CE854A85228667
:101A7000C933A2854A85F5368E0933053901835766
:101A8000250093E717002311F50089B7011171169E
:101A900022CC26CA3384C50093847500E1986198EE
:101AA00006CE4AC84EC6058C9359340004C123A4FF
:101AB000340123A604004E85EFE08FEB13094002AA
:101AC0003309A94013060002098E0A0981451385CE
:101AD00004011D090A06EFC0C00A13593900931703
:101AE000190093E717002391F400338729419317D6
:101AF000390023900400A697931617002391D7006E
:101B00002390270126948E09231104002310E4005A
:101B1000A69983D72900CA85268593E717002391C4
:101B2000F9006244F240D2444249B249056115BE0F
:101B30007571937746003EC406C722C526C34AC1C5
:101B4000CEDED2DCD6DADAD8DED6E2D4E6D2EAD0FD
:101B5000EECE93773500639D073E135D3600137D0F
:101B60007D00AA84AE89B68A050D1304450005C51B
:101B70009D4763E9B7021155BA402A449A440A497D
:101B8000F659665AD65A465BB65B265C965C065D8D
:101B9000F64D4961828093F97500A147138449008D
:101BA000B3893741BD679387C7BA3EC6C16793877C
:101BB000A7FD937C26009385FAFF014C814D814B54
:101BC000014AFD56114B11492143114E930EC00499
:101BD0003EC81306500299C0232054016340A0213F
:101BE000B9679387E7BB63E7FA00C5679387878286
:101BF00063E6FA1E3305944093572500639D0C223B
:101C00003D45636A7519638E042213850B0313081F
:101C1000010242952300F5FE2308D5FE850D01A49F
:101C2000214B214983C7150085056380072463196B
:101C30000A00E399C7FE8506054A114B1149DDB735
:101C40001305A0076366F5061305B0046365F50286
:101C500013057004636EF504130590026368F502C2
:101C60006387C7046366F604E38E77FA9387D7FD2C
:101C700013BA170045BF938747FB93F7F70F63E944
:101C8000F80232458A07AA979C43828705459387C5
:101C900067FDB317F50042457D8D49F533F55700D3
:101CA00029ED13FA1700E30F0AF6814705A0FD1688
:101CB000014A8DBF83C7F5FF6398E70C83C7E5FF33
:101CC0006397E70C8147014A214B21497D145A94BF
:101CD0003354640333046403E5C03305994022950B
:101CE000E3EBA9E8F5E76316C90B032508009307A2
:101CF000480008C011043E8891B703CAF5FF631C71
:101D0000DA05032508009307480041490328050028
:101D100042D00328450042D203288500484542D4DA
:101D20002AD67D144A94335424033304240385C0F3
:101D3000330599402295E3E0A9E4631BDA030255D9
:101D400008C0125548C0225508C4325548C44A94A8
:101D50003E884A8BB1BF1D08137888FF032F080007
:101D6000832F4800930788007AD07ED2214955BF3F
:101D7000025F925F2320E4012322F401C9BFD287CE
:101D8000014A114B114999B78147014A81B78147EF
:101D9000C5BF630469002955C5B393077800E19B6B
:101DA00003AF070083AF4700138887002320E401B7
:101DB0002322F4012104B5B581EF93074800E30B1A
:101DC000C9F3E31A69FC1D08137888FF2108DDB701
:101DD000832A08007D1D13074800F5BB63820C04AD
:101DE00033059440935725000548130FF01FE36413
:101DF000AFFA3D45E36175FBA9C013850B0393085A
:101E00000102469593F7F70F2300F5FE2308D5FE50
:101E1000E30608E093E707F82300F5FE050C850BC1
:101E20003A8811049308E0021307C006B70280380D
:101E300093030002C5BB01484DBF63040800850938
:101E4000F9BFA2478909E1FF56853ACE2ECC36CAA2
:101E5000EFF08F9E7247E245D246AA9913065002D0
:101E6000930EC004114E21435DBFB3079440130786
:101E7000F03FE362F7F289E4138589FF3E95EDB9FF
:101E8000898323A004002380F400A24793FDFD0F63
:101E900095C3A381B4012381840163160C04054B0F
:101EA00013090103814C330B9B4063929B0533055F
:101EB0009440D9B1A380B401F9BF18183E970347E5
:101EC0000700131687016186635B06003306D400A2
:101ED0001377F707E3E1C9CA2300E4000504850787
:101EE000E39DFBFC6DBF85468147858ED5BF6306AC
:101EF0000C008307090063CC0702A24785CF9C0032
:101F0000E69783C70700014A0504A30FF4FEB30751
:101F10004B01A297E3E1F9C6834709000504528605
:101F2000A30FF4FED6852285EFB0B03F5294850C06
:101F30000509A5BF834709008A07A69783AA07005A
:101F400023A007005685EFF02F8F130A1500C1B7A5
:101F500049551DB1D9CA011122CC26CA4AC84EC65C
:101F600052C406CE56C25AC083C7360003C7060005
:101F700003CB160086070A07BA9703C72600AA8470
:101F8000AE89BA9732893684B697014A636F6A037D
:101F900003475400834744000346740022075D8FC3
:101FA00083476400620693068400C2076244D98FA7
:101FB000F240224A924A024B5D8ECA8526854249EA
:101FC000D244CE87B24905618287938A170083C7BE
:101FD00007005685050A8A07A29723A05701EFF04C
:101FE000AF8593071500D69755B7295582802A8764
:101FF000814601459308A00313030007130E500206
:10200000834707001308170081CF15C9639CB600EA
:10201000638D6702138707FC1377F70F63E1E8020C
:1020200001458280138607FC1376F60F63E9C8002A
:1020300083471700850613082700014599C7639455
:10204000C70113451500428765BF8280717122D593
:1020500026D34AD14ECF52CD62C5EEDE06D756CB3F
:102060005AC95EC766C36AC10019935D370023244D
:10207000D4F82322F4F8834A2500AA842E89328AD0
:102080003A8CC28993FD1D0081ED834C15000345F8
:1020900005000A0556952695636A9905330995400A
:1020A00083C734002320F4F863850A0093771C006B
:1020B000B9E7832704F8D5E363070A00032684F809
:1020C000CA852685029A4A8B130104F5BA505A85AF
:1020D0002A549A540A59FA496A4ADA4A4A4BBA4B7C
:1020E0002A4C9A4C0A4DF65D4D618280930B150087
:1020F0005E85EFE07FF405055E95050971BF83CB32
:102100000400DC40939C2B002326F4F8B385940153
:1021100063120A264A8B814C0149B386250183C686
:1021200006002324B4F88A06A6968842EFE0DFF082
:10213000832744F8832584F8050589CB63F83C019F
:1021400093961C00BE962390A600850C05092A9B39
:10215000E36559FD338955011DA093772C00A9DF54
:1021600083CB0400DC40939C2B002326F4F8B3853A
:102170009401631D0A0E4A8B814C338955018327D4
:1021800004F8137A5C00133A1A00139D1700937732
:102190002C002324F4F8C567B96A93878782050A5F
:1021A0004A9D938AEABB2320F4F8137C1C00E30DBC
:1021B000A9F18345090009090347F9FF0A07269792
:1021C000832B070063E65B01832704F863ECFB04C1
:1021D00063890D060325C4F8232EB4F6093D832533
:1021E000C4F725C18A8B79710A863D67130787C6B4
:1021F0008327C4F858CA130700202310E6023707C4
:10220000000111074CCE1CCE18CA8965396581467C
:1022100041069385054813050556EF10304D791B8F
:102220005E8171B7638A0D000325C4F8232EB4F6CE
:102230007D3B8325C4F75DF563180C00330B4B41E0
:10224000BDB7832784F8A5D75E85EFE0FFDE83273F
:1022500044F899CB63FA3C0113971C003E97930610
:1022600015002310D700850C2A9B91B763890A10AB
:1022700093774C0063850710568D8149130504FB45
:102280005686232EB4F6EFB0D0098325C4F78327F2
:1022900004F8338B55018607232CF4F6DA97232EA6
:1022A000F4F6B9679387E7BB232AF4F693772C00FB
:1022B0002328F4F6C567938787822326F4F693775D
:1022C0001C002324F4F693774C002322F4F6832792
:1022D000C4F76319FB0A83CD140093772C00814562
:1022E0003386B9011376F60F99E393551D00937762
:1022F0001C00014589E793774C0091C36A85A38050
:10230000C400032684F82381A400A381B400268599
:10231000E685029A2A8BE34905DA832704F8032627
:1023200084F823807401A380B40123815401A38124
:10233000F400EA85130504FB029AAA8B6344051690
:10234000832784F7B3055941032684F80325C4F78E
:10235000B38595419D8D029A63480514DA9B338BB2
:10236000AB00814C63EE3C0D032684F881450145AA
:10237000029A99BBD689014D130504FA11B7814918
:10238000014D31B783450B00032744F7090B034682
:10239000FBFF93172600A6979C4363E6E7000327FD
:1023A000C4F663E7E704638E0D000325C4F8232E0B
:1023B000C4F42320B4F62539832504F60326C4F596
:1023C00019F5832704F7B9E393071D0013070DFCE4
:1023D00093F7F70F33058700938707FC2308B5FEB3
:1023E00093062D00A29713FDF60F2388C7FEC5B5EF
:1023F000638B0D000325C4F82320C4F6CD3E0326CD
:1024000004F6E31605EC832784F681CF138709FCD5
:1024100093871900B30987002380C9FE93F9F70F4A
:102420007DB5832744F6E38407EA13070DFC930781
:102430001D00B30687002388C6FE13FDF70F41BDBC
:10244000930704FA3387970103470700832744F86B
:10245000814AA30FE4F80A072697832B070091C748
:1024600013971C003E97835A0700032684F885457E
:102470001305F4F9029A634905022A9B639A0A003C
:102480005E85EFE07FBB930A1500C20A93DA0A016A
:10249000032684F8D6855E85029A634705002A9B49
:1024A000850CC9B52A8B0DB12A8B39B901458280BB
:1024B000B777002023ACA790828039712ED24C10C0
:1024C00006CE32D436D63AD83EDA42DC46DE2EC6C6
:1024D000EF10E04CF24021618280011126CA4AC807
:1024E00006CE22CCAA842E8932C636C4EFA030583C
:1024F0002246B2452320A2004A8582940325020089
:10250000EFA0D05A1C49A18B99EF58451C4163F6A6
:10251000E700B307F740014529A018510545B30767
:10252000F7409CC182808147FDB701116C0022CC2D
:1025300006CE2A84C13F11C5B2475844FD17BA9749
:102540003EC60850B247F24062441D8D7D150561BC
:1025500082802A871C53184B3305B600058B01C7B0
:10256000FD177D8D82806363F5001D8D8280411192
:1025700022C406C62E864C452A84E13F1C4848C426
:10258000DD9B1CC8B240224441018280011122CC53
:1025900006CE14415C4D139725008A06B697136743
:1025A000270098C32E862EC60C412A845D375C44D2
:1025B00008C032466316F5001C4893E787001CC824
:1025C0004C402285793748C0F240624405618280E0
:1025D000011122CC4EC652C456C206CE26CA4AC8E3
:1025E0005C450329C501AE898A073E998325090008
:1025F00089472A8413F73500328AB68A6303F702C3
:102600002320060023A006001C48898B95E701457E
:10261000F2406244D2444249B249224A924A056198
:10262000828023200600898123A00600F1DD813706
:102630005C441CC40545E9BF1C4C4A85829783272E
:102640000900AA8413F7170079D3898B9DCB638582
:102650000900CE8522851D3F4C4026862285D53D2A
:102660001C444C4448C06396F50026862285D53527
:1026700008C41C441CC05CC41C4893E787001CC8E9
:1026800055BFAA852285E5355C441CC463880900D2
:1026900018405C4C0A07BA9723A007003386340120
:1026A00023A0CA000C4022856D351C4808C093E762
:1026B00087001CC883270900F99B2320F9002320E9
:1026C0002A018DBF411122C426C24AC02A8406C6EF
:1026D000AE843289BD3D1C40639CA7001C4804C0E9
:1026E000DD9B1CC8B24022449244024941018280D1
:1026F0005C4C131729008A0413672700A69798C318
:102700004C404A862285B13548C0E9BF1C49918BAF
:1027100095C3411122C406C626C244512A843135CC
:10272000A68763F3A400AA875CD0B24022449244F7
:10273000410182808280411126C27146AE8481456A
:1027400022C406C62A84EFB0C043DC441CCC9C449F
:102750005CC89C405CCCDC40232204021CD098481E
:1027600099C79386F7FFF58F99E31367170018C889
:10277000130584022244B24092440546814541013A
:102780006F90F03C5D71CAC086C6A2C4A6C24EDE80
:1027900052DC56DA5AD85ED662D466D21C5102CACE
:1027A00002CE014963E9B7062A84AE89328AB68A25
:1027B000014B0149B36BD600F37C04307246668C42
:1027C00009C6DA852285FD3D02CE2C0822851D3BF7
:1027D000E245AA8463E435071C400329C4014E8600
:1027E0008A073E99834709002285F19B2300F9005F
:1027F0000C4085335C4408C0630DF5028144137CB2
:102800008C0073200C30D24591C55C4899C3228559
:10281000829702CAD5F0B64026449644F259625ACD
:10282000D25A425BB25B225C925C4A850649616186
:1028300082801C4893E787001CC8C9B701C5228560
:10284000B13375BF63860B022EC6EFA04004B245BC
:1028500005E193FC8C0073A00C30D28556861305DD
:102860008402EF905035737C04309334150041BFDF
:10287000740850082285032B0400993BAA8441B7B1
:10288000411122C426C206C64AC01C4D2A842E8588
:10289000AE8482972A86737904309C40228513790E
:1028A000890093E717009CC04C40653148C02285E1
:1028B000B13D73200930B2402244924402494101A3
:1028C0008280797122D452CC06D626D24AD04ECEFE
:1028D0002A84094A7379043018481C44218B11E773
:1028E00054403387F64063F4F60018501D8F444C73
:1028F0001379890009E7732009308144B1A88A0758
:10290000BE949C4013F737007DD76316470193D9D7
:1029100027006399090013F7170005E31C4C26856F
:102920008297AA890C444E862285253108C4CE851B
:10293000228535397320093071BF93E727009CC089
:102940000C441C4C26852EC68297B2452A862285C9
:10295000093108C473200930B25022540259F24997
:10296000624A2685925445618280011122CC26CA92
:102970004AC806CE4EC61C4D2A842E85AE84829748
:102980002A89F37904309C4013F7E7FF98C0184870
:10299000098B19C75444584C8A063697639EE40243
:1029A0009C40F59B9CC01C444C446396F5004A86B1
:1029B0002285453608C4CA852285553E93F989008B
:1029C00073A00930130584026244F240D2444249A4
:1029D000B24905616F90301913192500898BB3E74F
:1029E00027019CC0E1BF737704301C491445A18BBB
:1029F00091E75041B307D6406374D6001C51958FC0
:102A0000218B732007303335F0008280411106C6D8
:102A1000F3770430EF30806F3D65130505D2EFF09A
:102A2000DFA9EF30A06CF5BF2A878328C5000328F3
:102A300045005C4F330518416364F5001D8DBE9859
:102A4000544BB306D840B386D7406373D600B286E2
:102A50003385A74063F3A60036851C43330818412D
:102A6000C2979CC15C43AA975CC382801C455841B5
:102A70001D8F636FB700BE955C45584D0CC54CC1AA
:102A80009D8D63F4E50001458280BA975CC5E5BF82
:102A900029558280797126D24AD04ECE52CC06D6A4
:102AA00022D42A8A2E89B284814926866C005285D6
:102AB000A53F2A842A863245CA85818CEFB06006FC
:102AC000A299229991C075F0CE8552854537B250B2
:102AD000225492540259624A4E85F24945618280DD
:102AE0002A8783288501032805015C4F3305184197
:102AF0006364F5001D8DBE981447B3860641637369
:102B0000D600B2863385A74063F3A60036851C4302
:102B100033081841C2979CC11C4BAA971CCB8280DA
:102B20005C4918491D8F636FB700BE951C4D584D09
:102B30004CC90CC99D8D63F4E50001458280BA97AC
:102B40001CCDE5BF29558280797126D24AD04ECE60
:102B500052CC06D622D42A8AAE84328981494A864A
:102B60006C005285B53F2A8499C4B2452A862685D1
:102B7000EFA0307BA29433098940A2996303090036
:102B800079FCCE855285693FB25022549254025945
:102B9000624A4E85F2494561828082808357C50032
:102BA00013D70501C205B387E7021841C181085553
:102BB000BA95BE951C459C438287397122DC4AD860
:102BC0004ED652D406DE26DA56D25C55AA892E8914
:102BD0008443328A3684B304904093F4040219E8A3
:102BE0000145F2506254D2544259B259225A925A73
:102BF00021618280A28A63F38400A68AD6860A862F
:102C0000CA854E85613F71FD8147639557011D8CD3
:102C10003E99F1B73307F1000347070063144701FA
:102C20008507E5B7054575BF9841C167BA979CC14F
:102C30008356E50013D707016315D7004207998F24
:102C40009CC182806F10C026411122C426C206C6D4
:102C50000356C500C177B3F4F50093D50401B385DD
:102C6000C5021C412A840855BE95EF10302319E98E
:102C70005C548356C400A68503C657002285353FA1
:102C800011C16955B24022449244410182804111F0
:102C900022C4AA852A841D461305F00F06C6EFE05C
:102CA0009F97A303A400B2402244410182801C41AB
:102CB000054793F6F70F6379D70093F7F70FFD15E4
:102CC000BE95B307F040FD8D2E858280011106CEA2
:102CD00022CC26CA4AC84EC652C4AA8948552E8458
:102CE000A145F1378344340083472400034954004D
:102CF000A204DD8C834744002A8A22091D46A2854E
:102D00001305F00F3369F900EFE0FF90834774007B
:102D10006391A70203D5C900CA943305454133B571
:102D2000A400F2406244D2444249B249224A0561B9
:102D300082800145FDB7797122D426D24AD04ECE89
:102D400052CC56CA06D62A894855AE89A145853740
:102D500003A40900C1742A8A098C23A08900E18C8C
:102D6000C17A63EC84000145B25022549254025956
:102D7000F249624AD24A45618280A1463000A2856A
:102D80004A85293D75F12C004A85893719C9835731
:102D9000A1000357C100B3F4540123A08900BA97DE
:102DA000BE943304444175BF411122C426C206C6F5
:102DB000AA842E84213F39C183475400034744002D
:102DC0000145A207D98F9DEB8347140003470400F8
:102DD000A207D98F41677D176392E702C854A145C6
:102DE000F935034734008346240083D7C400220703
:102DF000558F998F33F5A70213351500B240224441
:102E0000924441018280397106DE22DC26DA4AD8FA
:102E10004ED62A844855AE84A14532C6493D324635
:102E20008C40AA89A1462285953B2A8935ED984098
:102E30004E9798C08357C40093160701C182B38789
:102E400037416393F606C16793560701B305F74010
:102E500099E68357E400FD17C207B385E7008CC0ED
:102E6000A146300822851D3B1DED5C5403C7570069
:102E7000A1473408AA9683C60600639FE6000505AD
:102E8000E319F5FE5C4039A09840C177F98F0357EC
:102E9000A101BA979CC009A82C08228531376DF58D
:102EA000A6852285493D2A89F2506254D254B259EE
:102EB0004A8542592161828099E2014582803971B7
:102EC00022DC4ED652D406DE26DA4AD80359C50093
:102ED00093D70501C2053309F9021C41C181AA89B2
:102EE000BE955C55328A368484432E99B304904053
:102EF000F58C89CC08551C45A686CA85DC4382978B
:102F00000DED058C014515C82699269A2286D28595
:102F10000A85EFA0104183A4C902330581009040C7
:102F200083C55400018EEFA0D04503A589029440CB
:102F30001C450A86CA85DC438297F2506254D254FB
:102F40004259B259225A21618280411106C622C4D7
:102F500026C22E864C41A1462A84B93FAA844854F1
:102F6000A145B1335C40898F5CC0B24022442685C4
:102F7000924441018280011106CE22CCFD572314D8
:102F8000F1002307F1001C452A8428002315F100D5
:102F900023160100ED392C002285453FF2406244A2
:102FA00005618280011106CE22CC26CA2A844855AA
:102FB000A145C174ED395C407D572314E10023071E
:102FC000E1000357C400B386A700E58FBA973385A5
:102FD000A74048C028002315D10023160100453919
:102FE0002C0022859D3722859305440035395C40AD
:102FF0000145E58F1CC4F2406244D24405618280E1
:10300000197186DEA2DCA6DACAD8CED6D2D4D6D240
:10301000DAD0DECEE2CCE6CAAA844855A1454139D1
:10302000DC4041772A8AF98F6C0026853EC6ED3E4A
:10303000B24903D9C400A14630084E993309494129
:10304000CA8526854AC8EFF07FB52A84634D0512EC
:10305000DC54214783C65700814730083E9603461B
:1030600006006314D6108507E399E7FE9C44D84018
:10307000D2976376F70ECE852685F9362A8421A26B
:10308000C1773379F9008357A1013E994AC81010DE
:103090000C082685424B853B2A846316050E0C10CE
:1030A00026852D3101E5E3145BFFC9B7DC403ECA3C
:1030B00030104C0826855249B9332A8469E50357F4
:1030C0008102835701026308F704D840D247E31115
:1030D000F7FEE31A69FD83574102F1D7835C2102B1
:1030E000C177B377FB00BE9C9C4408102311F1020A
:1030F000EFF0FFB9DC54035C410203A90700330978
:10310000204113790902631E0C000C102685353D01
:103110002A8451D98DA82C102685EFF03FBB55D5B8
:103120004DBFCA8B63732C01E28BDE861018E685D7
:103130002685EFF0BFA62A8439E58C44DE86101878
:1031400026859D3B2A84C854DE85EFF05FB69C44FB
:10315000AA979CC40DE8330C7C41DE9C6DB7268594
:10316000193D2A84E30905F039A82C082685B30AFD
:1031700049411D39E31605F00C082685EFF0BFBB69
:103180002A84E30605F0F65022856654D654465943
:10319000B659265A965A065BF64B664CD64C0961D0
:1031A00082805D71A2C4CAC086C6A6C24EDE52DC51
:1031B00056DA5AD85ED62A84130945014A85EF802B
:1031C000706A08541C45DC47829748D41DE53D666B
:1031D000130606D63965854513050558EFF09FA6F9
:1031E000A954B64026440649F259625AD25A425B63
:1031F000B25B268596446161828008541C45DC4799
:1032000082971C417D47FD176376F7003D661306E4
:1032100046D8C9B708540C405008EF70903709C51C
:103220003D66130646DA7DB78357C40089C76247F7
:10323000B3F7E70289C73D661306C6DB61BF0357D4
:10324000E400854763E6E7003D66130606DD59B7EF
:103250005C5402C003CA5700FD557D564A85EF8075
:1032600070614854A145814AEFF07FA4AA89814446
:103270008357E40063ECF4008357E400639B570535
:103280004A85EF80F06D930430FDA1BF8355C400E3
:1032900093970401A146B3853541C205C181BE950E
:1032A000528622852EC0EFF05F9105C18A85228566
:1032B000EFF09F978245850AC20AA1465286228571
:1032C00093DA0A01EFF07F8F45D98504C204C180EB
:1032D00045B7639FF4008245A1465286B3853541C8
:1032E0002285EFF09F8D09E58A852285EFF0DF9337
:1032F0008A852285EFF03FA4AA8409C54A85EF801C
:103300003066C5B5824AC177214B23225401B3FAF6
:10331000FA00232454014C401C4463E2F502A14608
:1033200050002285EFF09F87AA8469F95C00A69778
:1033300083C70700639747098504E39964FF5C40EE
:1033400041778A85F98F22853EC0EFF0FF8D835645
:10335000C400824552862285EFF03F86AA84E34F5F
:1033600005F85C406301050EC16A338AF900FD1A55
:103370008357C40052C033775A01B3873741636E15
:10338000F7063D6639651306C6E48D4513050558F5
:10339000EFF05F8B4C402285EFF01F8BAA8439FD44
:1033A0005C408356C4004177F98FB6979396190015
:1033B000958F5CC0F98F1CC422859931AA84E1C025
:1033C00035BF4C002285EFF07F90444009E5B3847F
:1033D000344144C089B7835B810083556100485400
:1033E00023245401DE95EFF09F8C569508C4E3101A
:1033F00095FEE38E0BFC8D54FDA8A1467000D2858E
:103400002285EFF0AFF9AA84E31A05EE6C0022855D
:10341000EFF0DF8B09C98357C100639657018357CB
:103420000101638F070C4E9AA1B78D8E52862285BB
:10343000EFF0AFF8AA84E34305EC11C958541C44DB
:103440001843BA971CC454400C44E3E0D5FE4C40EA
:103450000357C40093971900AE97E392E7F6184418
:10346000417AB3F74501E30CF7F42285EFF0CFFD85
:10347000AA84E31505E85C40B3F747011CC48357F1
:10348000C400035744008609B389374163013707F5
:103490004A85EF80F04C85478356E4000357C4000B
:1034A0002308F40039693D66130646DF8D45130590
:1034B0000958EF0050225440C164FD143D6633F7B3
:1034C00096001306C6E0C1828D4513050958EF002A
:1034D000902014443D6633F79600130606E2C1823D
:1034E0008D4513050958EF00101F8144DDB9228571
:1034F000EFF07FA8AA844A85EF809046C9DCD5B159
:103500003D663965130646E38D4513050558EFF012
:103510006FF35C4041778A85F98F22853EC0EFF0DA
:10352000AFF082452285EFF02FF249BD597186D662
:10353000A2D4A6D2CAD0CECED2CCD6CADAC8DEC6E3
:10354000E2C4E6C2EAC06EDE834705019DEB3D663C
:1035500039651306C6D4854513050558EFF08FEE7F
:10356000CD59B650265496540659664AD64A464B0B
:10357000B64B264C964C064DF25D4E85F64965617C
:10358000828044552A842E8C2685A1453689B28BAB
:10359000EFF0EFF1AA8CCA852685EFF04FF1835743
:1035A000C40013972C00AA84998FA959E3EB27FB39
:1035B00063040900E3870BFA5C403EC230004C0014
:1035C0002285124AEFF03F84AA8941FD835781008A
:1035D0006389870158409247E312F7FE6316090694
:1035E00049B72C002285EFF06FEE6DD5035BA1008B
:1035F0008357C100630909046318F904C177B377DD
:10360000FA003E9B5C545E8DCA8D83AA0700B30A04
:10361000504193FA0A02568A63F35D016E8AD2869C
:103620001008DA852285EFF06FD741ED52860C083D
:103630006A85EFD0AF8A09E9B38D4D41529B529D07
:10364000E39B0DFC39BF91DF014A91C4E694139AC4
:103650000401135A0A01930A4401FD557D5656850B
:10366000EF8050218357E400638FF9060C445840E3
:10367000B307BA00636BF704FD57CA865E862285DE
:10368000230BF1002319B10023188101231A210112
:10369000EFF09F82AA844854CA85EFF04FE11C44A2
:1036A000AA971CC491E80808EFF06FDE0C08228589
:1036B000EFF0BF89AA8415C55685EF80702AA689C8
:1036C0004DB5E343A0F8AA8969BD2285EFF09F8D2F
:1036D000AA847DF12285EFF0BF92AA8471FD85094D
:1036E00051B7CA84D1BF9154C1BF814601463DBD87
:1036F000797106D622D426D24AD04ECE52CC56CAA2
:103700005AC8834705018DE73D663965130505589D
:103710001306C6D48545EFF0EFD24D55B250225472
:1037200092540259F249624AD24A424B4561828020
:103730002A8448552E8BA145328A3689BA8AEFF001
:103740000FD78357C4000605898F2955E3E827FD65
:103750008329440081444EC2CE87924963FB9A007C
:1037600058406310370503578100630C6703795590
:1037700075B730004C002285EFF0EFE845F1835734
:103780008100639A67012C002285EFF02FD401C5D8
:103790008504C204C18058409247E31FF7FACE87E0
:1037A000D9B78356C100E1D6E3E354FD4177F98FE1
:1037B0006373D900CA868355A10052862285BE95BF
:1037C000EFF0CFBD21FD0355C10089BF01470DB703
:1037D00083470500918B81EF1C4113D5970013752A
:1037E000F57FD1833E955D05619909818280014510
:1037F00082800145828001114AC8396926CA56C2B1
:103800005AC006CE22CC4EC652C4AA84AA8A054B00
:103810001309896481ECF2406244D2444249B249BE
:10382000224A024B5685924A056182802685EFC066
:10383000FF9813144500B309890083C7C900331AE0
:10384000AB00134AFAFFB3F44401E9D783A7090098
:103850009C4B91EB4A945C4011464E858C43B3FAE5
:103860004A01352345BF4E8582974DF5E5B785451D
:103870006FA0201D91653715002001110146938529
:10388000A58E130505B806CE22CCEFA0400D8147CA
:1038900001483704002091660566B725002042C61E
:1038A0003EC402C0B94801480147938606C31306C7
:1038B0000680938505FF1305046FEF906008BD65D2
:1038C0001305046F9385C5E7EF80507DF240624495
:1038D000014505618280411106C6EF90F06CB2404F
:1038E000A9473385A702410182801385C1916F806A
:1038F0009027011156C2AA8A370500201305856951
:1039000052C406CE22CC26CA4AC84EC65AC02E8AF7
:10391000B93F2DC58144F24062444249B249224A2E
:10392000924A024B2685D244056182808347C400B7
:1039300091CF1C40DC4799C3228582971C409C4B49
:103940009DE75C40114622858C4391218509410405
:10395000E36E24FDE3810AFCD5DC2685693DAA845B
:10396000E30C0AFE81450545EF90700DF5B7228501
:10397000829761D9B3173B01DD8CC9BF39643969BE
:10398000AA8913048464814413098966054BC9B765
:10399000BD670A05938787E9AA9788438280AE8826
:1039A0002A8881470147814601468145014571A525
:1039B000AA8711CD41112E853777002006C6232E08
:1039C000F790EF003041B240014541018280295516
:1039D0008280411122C4370400208347A46E06C6AA
:1039E00089E71385C191EF8010188547B240230500
:1039F000F46E224441018280411122C42A84370599
:103A000000201305056906C69D3501C8370500204D
:103A1000854513054569EFA02004371500201305DF
:103A200005B8EF90707E2244B2401385C1914101E8
:103A30006F8070130545C9B7370500208145130510
:103A400005696FA02003411122C426C24AC006C6E0
:103A50003964DD37B9642A891304846493848466E5
:103A600063689400B240224492440249410182803A
:103A70005C4083C7570099C71C40DC4381C7CA8597
:103A8000228582974104E9BF411122C4BD65377484
:103A9000002013050495938545E806C6EFE0BFC9ED
:103AA00013040495B7070020B24023A4876822447A
:103AB00041018280B7070020A385076E1165B70713
:103AC0000020411123A807689305803EB707002016
:103AD0001305658D06C623AA0768D93DB24041018A
:103AE00065B7AA85377500200146814613050595FF
:103AF0006FE05FC937750020130505956FE07FDC27
:103B0000B7070020AA8503A587686FE01FE6377511
:103B10000020130505956FE01FEDB707002083C750
:103B2000A76ED5CB411126C206C622C44AC0D937DA
:103B3000AA8415C1370500208545130545693964F8
:103B40003969EF907071130484641309896663699D
:103B5000240726857537B707002083A70769370430
:103B60000020635CF002EF903044A9473387A7023E
:103B700083264466B385B702B3B7A702BE958327F1
:103B80000466958DB307F7403337F7006396E50079
:103B90001307803E6373F7007D3583270466832611
:103BA0004466B2401387873EB337F700B6972320A9
:103BB000E4662322F466224492440249410181BF13
:103BC0005C4083C7570091C71C40A68522859C4353
:103BD00082974104ADBF0145828041114AC0370937
:103BE00000208347B96E06C622C426C295E38145EC
:103BF00005453964B964EFF0DFCF1304846493841E
:103C00008466636D9400113F7DFD8547A305F96EC1
:103C1000B240224492440249410182805C4083C701
:103C2000570089C71C4022859C4782974104D1BF19
:103C300079718145014522D406D626D24AD04ECE8E
:103C400052CC56CA5AC85EC662C4EFF09FCA2A84D4
:103C50002DC1154A814A83270200370700202326F9
:103C6000F76881CFB707002003A74769A54763D648
:103C7000E7001385C191EF80006FB969014BB96B03
:103C80009389896601C82285EFF0FFB62A8419E17D
:103C90007D5AFD5A59352A8919E993848B64631535
:103CA0000B02D28556861385C191EF80C0704A8B76
:103CB000D1BF7D5AFD5A45B79C409C4F89C70146EC
:103CC000814526858297C104E3E834FFD9BF3705D3
:103CD000002041111305456906C622C4EFF03FB923
:103CE000B707002083C7B76E99CB7374043035359E
:103CF000218873200430B240224441018280B707FA
:103D0000002083A7C768E5DB19ED2244B2403715D0
:103D1000002081460147930540060146130505B87A
:103D200041016F90B045A547E317F5FC371500201A
:103D3000130505B8EF90504D2244B2401385C19150
:103D400041016F804062B777002083A7C7910111BE
:103D500006CE2AC68297B24588C53775002013055E
:103D60000595EFE0FFB1F240056195B7014582800E
:103D70003967B9671307875493878764998F8D8351
:103D8000014563F5F5008E052E9708438280B967DB
:103D9000938787645841B307F540918785072302CD
:103DA000F7005C4105472383C7005C418CC35C413D
:103DB000A382E7006FF0FFC118465C42998F63E869
:103DC000B702411122C426C206C61C422E84B28408
:103DD0002E86AA853385E700EF90B0549C44228557
:103DE000A2979CC4B2402244924441018280115562
:103DF000828019E16FF05FC0411122C426C24AC01F
:103E000006C62E892A84B284B68591CA9357960035
:103E1000410593F7F77F51823E95EF90905004C093
:103E20002322240122852244B240924402494101C6
:103E300019BF79714AD01389160026D2931429002C
:103E40004ECEAA89138574016199098122D452CC7E
:103E500006D62E84328AEFF0DFC8A30601002307BE
:103E60000100A30701002306210119CDB2471387E2
:103E7000C4FF1CC98147B306FA009042B306F5009F
:103E80009107D0CAE399E7FE1A04A6041374041C30
:103E900037061000458C130606FC618E2254B25082
:103EA00092540259624ACE85F2498146456191B7E2
:103EB000011132C68546700006CEA53FF24005616D
:103EC0008280011132C436C63000894606CE95374D
:103ED000F24005618280011132C236C450008D4625
:103EE00006CE3AC6B937F240056182805D71A2C440
:103EF000A6C2CAC04EDE52DC56DA86C65AD85ED694
:103F000062D4800893D9950093F9F97F2A8A2E8983
:103F1000B68A93D44501638A0910328B930644FC18
:103F2000232204FC232404FC232604FC11489307C9
:103F3000C4FB29470146CE855A85EFE02F919306B1
:103F4000F07FCE8B2A8C63F9A60683475B0003477C
:103F50004B008A84A207D98F03476B0079710A86C8
:103F600042075D8F83477B00E207D98F1CCE930702
:103F700000202310F6023D67B7070001130787EB07
:103F8000910758CA54CE1CCA8965396581464106D5
:103F90009385054813058558913F2681130104FB3D
:103FA000B640264496440649F259625AD25A425BB8
:103FB000B25B225C61618280DD04AA94B707F0FFE6
:103FC0009379F57FE1989387F71F13979900B3775B
:103FD000F90013D5240033E9E700EFF09FB0AA847D
:103FE00015C59307050111662322F4FC232484FDE3
:103FF000232604FC11489307C4FB2947930644FC7D
:10400000130686DBDE855A85EFE04F84B707F0FFA5
:104010009387F71FA6093376F900D68633663601F3
:10402000D2852685EFF0FFDC95BFDD04E19813D53E
:104030002400EFF01FABAA84D1BF397122DC26DA4D
:104040004AD84ED652D456D25AD05ECE06DEAA8B6D
:104050002E8A3284B68ABA84BE894289468B63032B
:1040600008043E86C1454687C2860145EFD05FAC55
:104070009307F07FAA8563F8A7026254F250D254E6
:104080004259B259225A925A025BF24B3D66396547
:104090009306F07F130686EF894513058558216145
:1040A0006FF03FE281451D8893FB7B001A048E0B65
:1040B00093979500336474015D8C93974401DD04FC
:1040C000AE94E19813D524005D8C2EC6EFF07FA14D
:1040D000AA8411C963090900B2455A87CA864E8667
:1040E0004105EFD0FFA422866254F2504259B259E2
:1040F000025BF24BD686D285925A225A2685D2543A
:1041000021616FF01FCF484109C9B9679387875470
:104110001D8D0D814205418582807D558280011172
:1041200022CC26CA4AC84EC606CE2A89AE8432841C
:10413000B68901E8F2406244D2444249B24905617D
:104140008280A28526854E860299098CAA94D5B7CD
:10415000397132D42E86AA85116536D61305851B92
:10416000341006CE3AD83EDA42DC46DE36C6EF10D0
:10417000B072F2402161828093F7050181EF93F5DF
:10418000050289C5C16593854578D9B7BD65938515
:1041900005F3E5BF8280411122C406C65C412A8432
:1041A0000C45D443904308419D3F5C4023A0070049
:1041B000B240224441018280411122C426C206C677
:1041C000DC41AA842E849843DC456314F7002E85D5
:1041D000D93748408545EF90D0061C44AA972380E4
:1041E0009700B2402244924401454101828041112E
:1041F00022C426C206C6A9472A84AE846314F500E9
:1042000035455D3FA6852285453FB2402244924414
:104210000145410182805D71CAC04EDE52DC56DA32
:104220005AD85ED686C6A2C4A6C262D466D26AD066
:104230006ECE2AC4C6495649B68BBE8A428B468A80
:10424000638E071493771900B28CAE843EC6EFF0EC
:10425000FFB1937D2900137D8900137409102A860C
:10426000014C01C92245BD659385C5F3EFF05FEEB2
:104270002A8C638D0D0093774904ADEB2245BD6513
:104280002686938505F4EFF0BFEC2A9C93771900FE
:1042900095C3BD6713972A009387C7FDBA979043CC
:1042A00001E63D66130646F32245BD65938585F616
:1042B000EFF01FEA41CC63110D0E8144638A0C00BC
:1042C0002245BD6566869385C5F6EFF07FE8AA8432
:1042D000E29463140B0E639E090E93771900639E9C
:1042E000071E2245CA85EFF03FE9F9A2B707002073
:1042F00083A7076A0145D1DB370700200327C76979
:104300000566130606E1B3D4E4021307803E930664
:10431000C003B3D5F402B3F4F402B384E40233F877
:10432000F40233F5C5023308E80233D6C502BD6591
:104330009385C5F43377D5023358F802B356D502C6
:104340002245B3D7F402EFF0BFE081B781446300A8
:104350000D02BD6713972A00938707FFBA97904312
:104360002245BD65938505F7EFF09FDEAA84638A39
:104370000C002245BD6566869385C5F6EFF05FDDCE
:10438000AA94E3870BF42245BD655E86938585F785
:10439000EFF01FDCAA942DBF814B65BF8547639862
:1043A000F6006311080E6389091081441DA0E30C17
:1043B00008FE11651305E51EC9A811651305851BC7
:1043C00022469965DA8693858509EFD0BFB8638365
:1043D000090E414CBD6BBD6C4E8B63733C01414B70
:1043E0002245CA85014DEFF03FD963429D0A03463D
:1043F0000A00224593850CF8054DEFF07FD59377A1
:104400007D0091E7224593854BF7EFF07FD46377EA
:104410006D09B307AA0103C60700224593850CF86E
:10442000EFF01FD3050DE31C8DFD2245BD6793857D
:10443000C7F8EFF0FFD101440147130DE005BD6D52
:10444000529703460700130706FE6374ED00130638
:10445000E002224593850DF9EFF09FCF0504630636
:1044600084051377740011E7224593854BF7EFF02D
:104470003FCE2287E36664FD224593854BF7EFF03C
:104480003FCDE9BF11651305851B814415BF22454A
:1044900093854BF7050DEFF0BFCB81BF2245BD677C
:1044A000938587F8EFF0DFCAB5BFB38969415A9A9F
:1044B000E39409F2E3930AE226442245B640964487
:1044C0000649F259625AD25A425BB25B225C925C54
:1044D000025DF24D61616FF01FCC22453D66BD6506
:1044E000130646F3938585F6EFF09FC6DDBB797121
:1044F00022D426D24AD04ECE52CC06D656CA9841A5
:104500002A892E85935967000D8383AA85002E84FE
:10451000328A93747700EFF01FBF93F979008146D8
:1045200063470500AA852685EFF09F84AA86184078
:10453000130804019357970093F7F77F5183B3084B
:10454000F80091E3014852C23AC0CE87D6854A8529
:1045500001470146EFF03FCCB25022549254025929
:10456000F249624AD24A456182800111896722CCB0
:1045700006CE26CA4AC89387F77004412A84BE86AD
:1045800063E3B700AE863D661306C67B95452800FB
:10459000EFC00F9A5C40BD652A89D44326852D461D
:1045A000938505FBEFF0BFB75C404A862C00D443EF
:1045B0002685EFF0DFB65C40BD652685D4436D46A9
:1045C000938545F9EFF0BFB5F2406244D2444249C9
:1045D0000561828037470F0081468547130707240E
:1045E000636DA7003707002091E28547232EF76807
:1045F000B707002023A0A76A828005818607854629
:10460000C5B75C4101459C43DC438CCB82805C4157
:104610009C43984358435CC382805C4185469C43DD
:10462000D843230AD70088436FF0FFB65C419C4310
:1046300088436FF09FF3011106CE22CC5C412EC659
:1046400080435C40884BEFF0AFB4AA8708406244D7
:10465000B245F2403D460561828701114AC8396979
:1046600022CC26CA4EC606CEAE842A84B309B50033
:10467000130909CB631A3401F24062444249B2493A
:104680002685D24405618280834504008327890002
:104690004A850504DC438297F1BF8280011122CC58
:1046A00006CE26CA04452A842EC6DC4432C482972C
:1046B0009C4489CB228562442246B245F240D244D2
:1046C00005618287F2406244D244130580FA056195
:1046D0008280411122C406C68347A5022A8493051D
:1046E000002899E393058028232C04002285352097
:1046F00019C1232C0400B240224441018280AA87C0
:1047000083C78702485199E301458280034705002A
:10471000FD17E30CB7FE4105FDB7797106D622D42B
:1047200026D24AD04ECE52CC56CA5AC85EC68359FB
:104730008500638B091A93FA05081841032A45007E
:10474000032B05022A842E89638D0A008357A50056
:1047500029456384071493061A00FD1754C02315D6
:10476000F400FD19C2099307170093D909011CC071
:1047700023143401834507002285EFF05FF8AA84F3
:104780002D456386041083C714003347F90013775F
:104790000708631E070E1377890009E7A18B3145CF
:1047A0006397070E937B092063870B0083D7240050
:1047B000354563EEF90C93790910638909000357B5
:1047C000A40083D7240029456363F70C5C4C04D014
:1047D000D5EB83C71400858BE1EF03C714009377F3
:1047E0000704F1EF856793870740B377F90081C726
:1047F000418B554549EF8567B377F90099C3268505
:10480000452663870B0293770940E1E303D6240032
:104810000C40C840EF90E03003D724001C40BA970A
:104820001CC003D7240083578400998F2314F400FD
:104830009357B900858B99C326852529638809027A
:1048400093770940C9C7CC44484003D62400D1C15E
:10485000EF90202D03D724005C40BA975CC003D7AB
:1048600024008357A400998F2315F40083C71400F4
:10487000898BA5E75C4C014599CB9365290022857E
:10488000829731A0936519002285829739D1232020
:10489000640363840A002300AA00B2502254925495
:1048A0000259F249624AD24A424BB24B4561828078
:1048B0009C44936519002285829705D1C9BF8967F9
:1048C000938707A0B377F90091DF5D45C9B7CC4066
:1048D000A5BF8145EF90E02AB5BF9C4493652900B0
:1048E0002285829741D965B7354545BF8967011152
:1048F000938707C022CC4AC806CE26CA4EC652C4E9
:1049000056C25AC0ED8F2A842E8995C71C4185074F
:104910001CC183578500FD172314F500832A440228
:10492000034A840293844197938981982D4B63E3D2
:1049300034032D458DA0EFF05FDEAD47E300F5FEBB
:10494000F2406244D2444249B249224A924A024B5E
:10495000056182801C40CA852285FD171CC08357D3
:10496000840085072314F4009C445CD083C7C400F2
:104970002304F402EFF07FDA6304650309ED1359B1
:10498000B900137919006308090083C7D40093E7BD
:104990004700A386F40023225403230444034DB7A5
:1049A000D10471B74111014506C6EFE02F861C51B5
:1049B00093F5D5D7C20503C707008D47C18163179B
:1049C000F70093070050DD8D6FF05FF29307001042
:1049D000DDBF93F5D5D793E505206FF03FF1FD7767
:1049E0009387D757FD8D8567938707A0DD8DC20517
:1049F000C1816FF0BFEFFD779387D7D7FD8D8567B6
:104A0000DD8D6FF0BFEEF9779387D757FD8D8967FE
:104A100093870780DD8DC205C1816FF03FED37655B
:104A2000002041119305600901461305053106C6B2
:104A3000EF70D064B240014541018280411122C42F
:104A400006C613F7152085472E846317F700312A11
:104A5000B70700202394A76E137424209307202007
:104A60006319F400B707002003D5876E1375051C82
:104A7000E128B2402244014541018280411122C413
:104A800006C613F7152085472E846317F7003705F0
:104A900000201305856AF928137424209307202029
:104AA0006310F402370400200355846A1304846AF7
:104AB0001375051C51288347240099E30145E1281B
:104AC000B2402244014541018280411122C406C600
:104AD00026C24AC01C512A8403A9C700C4436318D4
:104AE00009020356A5004C412685EFE0EF85AA8414
:104AF0005C400145A6975CC08357A400858F2315B1
:104B0000F400B24022449244024941018280FD55A2
:104B10007D564A85EF7000560356A4004C4026850A
:104B2000EFE08F82AA844A85EF708063D1B7B70720
:104B3000002003C5C76E411106C63335A000012E03
:104B4000B240014541018280370700208357C76A80
:104B50009346F5FF5189F58F09C593F7F7FDC20715
:104B6000C1832316F76A01458280B707002003D569
:104B7000C76A8280B707002003C7C76A2300E50021
:104B800003C7D76A9387C76A83C72700A300E500D6
:104B90002301F5008280B70700202387A76A82805F
:104BA00003471500AA87418B19EB4C4503D6270014
:104BB000484199C16F80F07681456F80907C8280FA
:104BC000411106C622C426C204450344C50011E4AF
:104BD000B24022449244410182802685EFF05FFC7E
:104BE000C1047D14EDB7011122CC4EC606CE26CAF3
:104BF0004AC8032985008344C5002A84B769002078
:104C000081E8F2406244D2444249B249056182805F
:104C1000834509008347E4006386B700138589480C
:104C2000EFE0BFAC4109FD14E1BF8347150093F7E6
:104C3000070481EF83562500504183450500376501
:104C40000020130585486FE07FB88280411106C6B9
:104C500022C426C204450344C50011E4B2402244E4
:104C60009244410182802685EFF03FFCC1047D140F
:104C7000EDB78347150093F7070481EF83562500AE
:104C800050418345050037650020130585486FE0D6
:104C9000FF898280797122D426D24ECE06D64AD0A0
:104CA00052CC56CA0018B7690020938489488854AA
:104CB000EF60303F9C5431E98A84011198430A86A1
:104CC000BD67938787065CCA93070020231EF60002
:104CD000B70700018D0718CE1CCA89653965814662
:104CE0004106938505C413058557EFF02FA035596C
:104CF0002681130104FDB2504A8522549254025970
:104D0000F249624AD24A456182808C40130644FDD2
:104D10003E85EF6000082A8919C93D66130686089A
:104D20003965854513058557EFF08F98D9B7032767
:104D300084FDA16713858948B3D7E7022396E40071
:104D40002397F400EFE0EFC52A8909C53D661306F5
:104D5000460AF9B7814A93844197138A8198E3FA06
:104D600044F9268523885401EFF09FE583C5E400CC
:104D700091461386440013858948EFE03FA591478B
:104D80006318F50003C7440083C704006308F702F3
:104D90002685EFF05FE583C5E40013858948EFE0E1
:104DA000DF9483C5E4009146268613858948EFE0A9
:104DB000EFF79C40DCC0850AD10455B783C5E400F9
:104DC0009146268613858948EFE04FF69C4026855C
:104DD000DCC0EFF0BFE7C5B7B707002023ACB76A68
:104DE000014582808280B70700200547A386E76ED1
:104DF000828001458280411122C42E862E84AA859C
:104E0000376500201305854B06C6EFD0BFC8B240FA
:104E10002285224441018280B707002083C7D76ED4
:104E2000011106CE2EC68DE3B707002003A5876BC0
:104E3000EFE01FB6B245F240AA873D6513060004B5
:104E40001305050F05618287F24005618280B7076F
:104E500000209387076B19C123A00700A382A70036
:104E600082806F70405021056FF0BFFF6F70A054BB
:104E700001114AC84EC652C456C25AC006CE22CCF0
:104E800026CA04552E8AB28A8149114B130985001E
:104E900063ED5901F2406244D2444249224A924AA7
:104EA000024B4E85B249056182808050B3873A41FA
:104EB00063F387003E84FC48131604014182D285C7
:104EC0002685829761F9FC44268582979377550160
:104ED000E39267FD098919E5FD557D564A85EFF096
:104EE000FFF8D5B742044180A299229A55B76F7056
:104EF00020275D71A2C44EDE5AD886C6A6C2CAC09B
:104F000052DC56DA5ED662D466D26AD06ECE8008A3
:104F100003298502AA892E8BD9E9832D0503835B9A
:104F20008503938789008144814A232EF4FA8D4CAE
:104F30006D4DA69A054C81440327C9044A85029702
:104F400025890DE10326C90133879B406373C700A0
:104F50003A860327090542064182B3859D004A85AA
:104F60000297814A0327C9044A85029713774500AF
:104F70000DCF137A150063100A1E03A7C903FD5550
:104F80007D5619CB1305970029468146B335E500B8
:104F9000EFB0CFA72E86AA850325C4FBEFF01FED47
:104FA00071D1832709064A8582970145BDAA832DC1
:104FB0004503835BA503B5B783D6A90363E5E6285C
:104FC00003C75D0183C64D012207558F83C66D015E
:104FD000C206D98E03C77D016207558F83A6C90219
:104FE0006305D7028DA403C75D0183C64D01220767
:104FF000558F83C66D01C206D98E03C77D01620736
:10500000558F83A6C9026300D72403C79D0083C6BA
:105010008D002207558F83C6AD00C206D98E03C707
:10502000BD006207558F63E6E41283C6DD0003C747
:10503000CD0003CAFD00A206D98E03C7ED00620AA7
:1050400023860D004207558F336AEA00A3860D00C0
:1050500023870D00A3870D00371C0020FD557D56CA
:1050600013054C77EF70000183C69D0003C78D00C8
:1050700083C5BD00A206D98E03C7AD00E2056E85CB
:105080004207558FD98DEFC08FD8630545071305AB
:105090004C77EFF0DFE50A8A01110A863D671307B6
:1050A00087F658CA3D671307071218CE130700206A
:1050B000231EE600370700010D0718CA83C69D00AE
:1050C00003C78D0083C5BD00A206D98E03C7AD00FE
:1050D000E2054207558FD98D130700036374B700AB
:1050E000930500030967130707C8D205D98DEE861B
:1050F000410659A213054C77EFF07FDF83C65D01AF
:1051000003C74D0183C77D01A206D98E03C76D0178
:10511000E2074A854207558FD98F23A6F9028327D4
:1051200009068297139504014181130104FBB640DF
:10513000264496440649F259625AD25A425BB25BFF
:10514000225C925C025DF24D61618280094A528C60
:10515000E5B30D4AEDBF0327C90133869B40B385F4
:105160009A0033065641EE956373C7003A860327CB
:105170008905420641824A85232CB4FA0297832589
:1051800084FB2A86638A0A00232CA4FA33859D00B7
:10519000EF80701B032684FB8947B2946301FC04F3
:1051A000E3059CE7E3F59CFA37D7B0BA9386C4FFD2
:1051B000014C1307E7AF33868D0110426305E6000B
:1051C000050CE3FA86FFB38484412686B3858D01FE
:1051D0006E85EF8050170D47E29AE37A97F6E377F2
:1051E0009DF683C69D010547639FE60403C78D01B5
:1051F000631B670503C72D0139E783C64D0041478F
:105200006393E60403C75D001DEF83C60D013147BC
:10521000639BE60203C71D011DE703C79D0083C60C
:105220008D002207558F83C6AD00C206D98E03C7F5
:10523000BD006207558F6378ED00E31F0BD683D660
:105240008903E3F2E6DA0A8A01110A863D67130749
:1052500087F658CA3D671307071018CE13070020BA
:10526000231EE600370700010D0718CAB725C00145
:10527000EE864106938505C8396513058563EFE021
:10528000FFC652817DB1411106C6371500201305B6
:105290008578EF60305DB240371500201305457703
:1052A00041016F60305C411122C406C626C204551C
:1052B0002A84054681452105EF706009956793872B
:1052C00067E69CC8C0C42244BC40B24026859244D4
:1052D00041018287411122C406C6EFF0DFFA03A51F
:1052E0000181610505468545EF70600603A50181D2
:1052F0002244B24041016FF01FFB41114AC0130923
:10530000850122C426C22A84AE847D56FD554A8575
:1053100006C6EFF0BFB58347540489CF4A85EFF046
:105320005FB493046005B24022440249268592444A
:105330004101828008548567938747235CD47C4D64
:1053400082970854A6857C418297AA8409C54A851C
:10535000EFF03FB1C9BF8547A302F404CDBF0111EF
:1053600026CA06CE22CC4AC84EC652C4AA84639D21
:1053700005101C4103598503005983D78700330961
:10538000F940F9572300F4009307A0FCA300F400B0
:10539000930700FB2301F4009307A0FBA301F40093
:1053A0005C5523042401230C040013D78700230A2F
:1053B000F400A30AE40013D70701E183A30BF40070
:1053C00093578900A304F400935709012305F400BF
:1053D00093578901230BE400A305F4001C4183C704
:1053E000B702A303F4001C5583C7A7012303F400ED
:1053F0008547A30CF400C1472302F400B1472306FC
:105400000400A306040023070400A30704002309E3
:105410000400A30204002308F400A3080400A30965
:105420000400230D0400A30D0400371A00207D564C
:10543000FD5513054A77EF60F043CA852285EFC01A
:105440000F9D9C40AA89904B09C6CC47EFC0AF97EF
:10545000AA8913054A77EFF09FA993D789002306FD
:105460003401A306F40093D7090193D989012307D6
:10547000F400A3073401F2406244D244B249224A04
:105480004A8542490561828085476390F50A1C413F
:105490000359A503405983D7A7003309F940F957A9
:1054A0002300F4009307A0FCA300F400930700FB83
:1054B0002301F4009307A0FBA301F400145983C750
:1054C000560103C74601A207D98F03C766014207E9
:1054D0005D8F83C77601230AE400E207D98F13D7D3
:1054E0008700A30AE40013D70701E183230BE4003C
:1054F000A30BF4001C419C4B230CB400CA9713D798
:1055000087002304F400A304E40013D70701E18318
:105510002305E400A305F4001C5983C76700A30317
:10552000F4001C4183C7B702D1B5232600000290C6
:1055300018590CC15C59710798C103578503F107CD
:10554000DCC111172394E5008357A50323A60500AA
:1055500023A8050091172395F50082805C412380E4
:10556000B7008357A500FD172315F50082800111B0
:1055700022CC06CE26CA4AC84EC652C456C20329F9
:10558000850283290500832A05038327C904032A8A
:1055900045032A844A85829711899307100735C1EC
:1055A0005C5485075CD48327C90599C34A858297D3
:1055B00081452285EFF0BFDA83C7B90213160501D2
:1055C000AA842306F9024182D6852285EFF05F8AFC
:1055D000C2044205C1804181930720076393A4025E
:1055E00085452285EFF0FF909307300719C983475F
:1055F0009A0003478A00A207D98F91172395F900D3
:105600008147F2406244D2444249B249224A924A16
:105610003E8505618280411126C222C42A8403A5E9
:10562000018106C685473841631FF7028347450459
:105630000347B402F98F85CBFD557D566105EFF028
:10564000FF8203A501818347550499CBA285EFF022
:105650003FEE03A50181B240224492444101828081
:105660006105EFF01F800145FDB75D71A2C486C6DC
:10567000A6C2CAC08347B5022A840808A30DF10256
:10568000EFF07FF99305200819CD03568400835766
:105690008101AA841309850163FBC7004A85EFF0E5
:1056A0004FFC930500022285EFF05FEB81A80C40D0
:1056B0004245EF80004783578101035784002685C8
:1056C000998F231CF100EFF09FEA2AC64A85EFF07C
:1056D0004FF9B245E9F90356A1018357A400930598
:1056E0001002E3E2C7FCD2454840EF808043835775
:1056F000A4000357A101998F2315F400B640264456
:105700009644064961618280397122DC52D45ECEB2
:1057100066CA06DE26DA4AD84ED656D25AD062CCAF
:105720006AC86EC6832A050083298502032C4503B7
:10573000032B0503416A2A84B71B00207D1A930CB2
:10574000850083A7C9044E858297118919E5FD5507
:105750007D566685EFF08FF1EDB781452285EFF03C
:105760004FF965D118580440032D44039307C7012E
:105770009CC08347970083468700A207D58F911767
:105780002394F4009307CD01DCC08357A40323A620
:10579000040023A8040091172395F40083477700A1
:1057A000A385F402FD557D5613858B78EF60900C30
:1057B00083C7B4020840C1CF18540347A701630848
:1057C000F708EFF09FEA13858B78EFF04FF28545ED
:1057D0002285EFF0DFB89C482A8985CB835DA4033E
:1057E000B38DAD4063F3B701BE8DCC44B3FD4D0125
:1057F00033052D016E86EF80C0329C486E99B387C9
:10580000B7419CC8DC44EE97DCC483476B0003D6E9
:10581000C901DA852386F90283A709054E85829797
:1058200033764901E2852285EFF08FE44205420993
:10583000418113590901E31625F103A60A01E30288
:1058400006F083A5CA002285EFF08FE2DDBD835705
:105850008500B5DBEFE0FFE7BDB7011156C283A7B6
:10586000018122CC3714002026CA4AC84EC652C431
:105870001307443406CE98C383A701812A8AAE89D0
:10588000B8433289B6841304443401E7C843EF7047
:10589000800103A501811C559C5B858B95C73C410C
:1058A00089EB2322440323043403232E24012305FC
:1058B00094026244F240D2444249B249224A924A96
:1058C000814505616FF07FA3F2406244D2444249B2
:1058D000B249224A924A05618280737704305C5152
:1058E00023A6070023A4070023A2070023AC070078
:1058F00023AA070023A807001C55F99B1CD5937702
:10590000870073A0073082808280411113058502D1
:1059100006C6EF80E015B2401375F50F4101828095
:10592000011122CC26CA06CE4AC8AA842E849C44E1
:10593000FC43CDE39C44BC43DDE79C44DC5B81C776
:105940002685829729C1504C48506C00EFD0CF8DEE
:105950009C44B2452A869C4F99E74850930580FAAB
:10596000EFD0CF90CDB7268582972A89AA85485057
:10597000EFD0CF8FE31909FC1C54484493E717007C
:105980001CD41C4882979C44DC5381C7268582978F
:1059900059DD0356440315C29C440C5C130580FA80
:1059A000DC4B99C3268582971C5CAA971CDC835725
:1059B0004403898F231AF4029DBF1C54084093E7C7
:1059C00027001CD41C459C5391C382971C48484413
:1059D0008297B1BF2685829731FDF2406244D2445E
:1059E0004249056182802685829721F9FDB74111E0
:1059F00022C406C61C552A840145858B8DC7328575
:105A00001DC24850EFD04F9442054181F3770430D6
:105A10005850144B18476395E6001854799B18D4D6
:105A2000A18B73A00730B240224441018280411112
:105A300022C406C62A84A14513058502EF80C0044E
:105A400008401C459C5789C72244B24041018287C7
:105A5000B2402244410182801C55898B85CB15CAF6
:105A6000411122C406C62A840CDD231AC502F5554D
:105A700013058502EF80A00208401C45DC4F91C34E
:105A80008297B240224401454101828013054006BD
:105A9000828001458280411122C426C206C60008C8
:105AA000AA8408411C4581CBBC4791C799652686CD
:105AB000938505928297994513858402EF70907BB8
:105AC0009C48C84482979C4001110A869843BD6750
